:020000040800F2
:100000000000012051120008770F00087D0F000842
:10001000830F0008890F00088F0F00080000000000
:10002000000000000000000000000000950F000824
:10003000A10F000800000000AD0F0008B90F000874
:10004000A1120008A1120008A1120008A1120008C4
:10005000A1120008A1120008A1120008A1120008B4
:10006000A1120008A1120008A1120008A1120008A4
:10007000A1120008A1120008A1120008A112000894
:10008000A1120008A1120008A1120008A112000884
:1000900000000000A1120008A1120008A11200082F
:1000A000A1120008A1120008A1120008A112000864
:1000B000A1120008A1120008A1120008A112000854
:1000C000A1120008A1120008A1120008A112000844
:1000D000A1120008A1120008A1120008A112000834
:1000E000A1120008A1120008A1120008A112000824
:1000F000A11200080000000000000000A11200088A
:10010000A1120008A1120008C50F0008A1120008E2
:10011000A1120008A1120008A1120008A1120008F3
:10012000A1120008A1120008A1120008A1120008E3
:08013000A1120008A112000851
:1001400010B5054C237833B9044B13B10448AFF311
:1001500000800123237010BD7C00002000000000FF
:10016000E860000808B5034B1BB103490348AFF32F
:10017000008008BD0000000080000020E86000084A
:10018000034613F8012B002AFBD1181A01387047D7
:1001900001F0FF01102A2BDB10F0070F08D010F838
:1001A000013B013A8B422DD010F0070F42B3F6D13C
:1001B000F0B441EA012141EA014122F007047FF055
:1001C00000070023F0E80256083C85EA010586EAAC
:1001D000010685FA47F5A3FA87F586FA47F6A5FAE8
:1001E00087F68EB9EED1F0BC01F0FF0102F00702F4
:1001F00032B110F8013B013A83EA010313B1F8D19F
:100200000020704701387047002D06BF354603387F
:10021000073815F0010F07D1013015F4807F02BFB8
:10022000013015F4C03F0130F0BC0138704700BF09
:1002300053B94AB9002908BF00281CBF4FF0FF314D
:100240004FF0FF3000F074B9ADF1080C6DE904CE49
:1002500000F006F8DDF804E0DDE9022304B07047A1
:100260002DE9F047089E0D4604468846002B4DD1E7
:100270008A42944668D9B2FA82F252B101FA02F384
:10028000C2F1200120FA01F10CFA02FC41EA030854
:1002900094404FEA1C45210CB8FBF5FE1FFA8CF781
:1002A00005FB1E8341EA03430EFB07F199420BD97C
:1002B0001CEB03030EF1FF3080F01E81994240F2E7
:1002C0001B81AEF1020E63445B1AA4B2B3FBF5F0DE
:1002D00005FB103344EA034400FB07F7A7420AD9A1
:1002E0001CEB040400F1FF3380F00881A74240F2C8
:1002F000058164440238E41B40EA0E4000211EB12F
:10030000D4400023C6E90043BDE8F0878B4208D9FA
:10031000002E00F0EE800021C6E900050846BDE889
:10032000F087B3FA83F100294AD1AB4202D382426B
:1003300000F2F980841A65EB030301209846002E31
:10034000E2D0C6E90048DFE702B9FFDEB2FA82F286
:10035000002A40F09180A1EB0C054FEA1C471FFAE0
:100360008CFE0121B5FBF7F307FB1350250C45EA82
:1003700000450EFB03F0A84208D91CEB050503F16C
:10038000FF3802D2A84200F2CB8043462D1AA4B215
:10039000B5FBF7F007FB105544EA05440EFB00FEE1
:1003A000A64508D91CEB040400F1FF3502D2A6458E
:1003B00000F2BB802846A4EB0E0440EA03409EE70F
:1003C000C1F120078B4022FA07FC4CEA030C20FA0B
:1003D00007F405FA01F31C43FD404FEA1C4900FAFB
:1003E00001F3B5FBF9F8200C1FFA8CFE09FB185538
:1003F00040EA054508FB0EF0A84202FA01F20BD9CB
:100400001CEB050508F1FF3A80F08880A84240F215
:100410008580A8F1020865442D1AA4B2B5FBF9F055
:1004200009FB105544EA054500FB0EFEAE4508D910
:100430001CEB050500F1FF346CD2AE456AD90238D9
:10044000654440EA0840A0FB0294A5EB0E05A542D6
:10045000C846A64656D353D05EB1B3EB080265EB4F
:100460000E0505FA07F722FA01F3CD401F43C6E94E
:1004700000750021BDE8F087C2F1200320FA03F1E6
:100480000CFA02FC25FA03F395400D434FEA1C4792
:100490001FFA8CFEB3FBF7F107FB11302B0C43EA7C
:1004A000004301FB0EF0984204FA02F408D91CEB59
:1004B000030301F1FF382FD298422DD9023963444A
:1004C0001B1AADB2B3FBF7F007FB103345EA034547
:1004D00000FB0EF3AB4208D91CEB050500F1FF3819
:1004E00016D2AB4214D902386544ED1A40EA0141F4
:1004F00038E73146304607E78646E5E61846FAE62D
:100500004B45A9D2B9EB020864EB0C0E0138A3E706
:100510004046EAE7204694E74146D1E7D0467BE7EC
:10052000023B654432E7084609E76444023842E783
:10053000704700BF80B485B000AF78604FF0B04323
:10054000DA6C4FF0B0417B681343CB644FF0B0439B
:10055000DA6C7B681340FB60FB6800BF1437BD4654
:1005600080BC704780B500AF0120FFF7E3FF00BFFC
:1005700080BD80B483B000AF78604FF0B043D3F853
:10058000903023F018024FF0B0417B681343C1F85C
:10059000903000BF0C37BD4680BC704780B485B03A
:1005A00000AF78604FF0B043DA6C4FF0B0417B6839
:1005B0001343CB644FF0B043DA6C7B681340FB60AD
:1005C000FB6800BF1437BD4680BC7047B0B5E4B0CF
:1005D00000AF01F0ADFF00F035F907F5C873A3F5E2
:1005E000C8731A460023136053609360D36013618D
:1005F0000120FFF7D3FF0220FFF7D0FF07F5C873F4
:10060000A3F5C873F0221A6007F5C873A3F5C87381
:1006100002225A6007F5C873A3F5C87300229A60D6
:1006200007F5C873A3F5C8730322DA6007F5C8732A
:10063000A3F5C8730D221A613B4619464FF090404E
:1006400002F01CF907F5C873A3F5C8734FF44062B4
:100650001A6007F5C873A3F5C8730D221A613B46EB
:1006600019464FF0904002F009F907F5C873A3F559
:10067000C87314221A603B4619466C4802F0FEF813
:1006800007F5C873A3F5C8734FF480521A6007F5D5
:10069000C873A3F5C87306221A613B4619464FF08A
:1006A000904002F0EBF807F5C873A3F5C8734FF458
:1006B00094721A603B4619465C4802F0DFF8FFF777
:1006C00051FF00F033FD00F09FFC07F11403584A7E
:1006D0001C4615460FCD0FC40FCD0FC40FCD0FC450
:1006E0002B68238007F114031846FFF749FD0346E2
:1006F0009AB207F114014FF0FF334E4804F073FA39
:1007000007F1140007237D224B4905F06DF807F12E
:1007100014031846FFF734FD03469AB207F114019B
:100720004FF0FF33434804F05EFA00F0E5F8002391
:10073000C7F88C31002300220021002001F04AF983
:1007400000F0CDFFC7F88C0107F5C873A3F58C73D3
:1007500000221A7007F5C873A3F58C7300225A7033
:1007600007F5C873A3F58C7340F6B8325A6007F5E5
:10077000C873A3F58C73C8229A60D7F88C319A0D90
:1007800007F5C873A3F58C73DA6007F5C873A3F592
:100790008C73DA6807F114032849184605F024F829
:1007A00007F114031846FFF7EBFC03469AB207F172
:1007B00014014FF0FF331F4804F015FA07F5C87312
:1007C000A3F58C73DB68184601F028FF0023002294
:1007D00040F2422140F2422001F0FCF800210120C9
:1007E00001F088FD07F5C873A3F58C735B689B0166
:1007F000184600F0F7FF07F5C873A3F58C730122C4
:100800001A7007F5C873A3F58C7301225A700C4B4C
:1008100000221A6000BF0A4B1B68002BFBD0084B5C
:100820001B6807F1780210469847F0E7000400487B
:1008300000610008C0000020346100086461000805
:100840009800002080B59AB000AF07F1200348223D
:100850000021184604F0C0FF07F1080300221A60C7
:100860005A609A60DA601A615A6102F097F90020C2
:10087000FFF77FFE1F4B1B6823F4C0631D4A43F440
:10088000007313601B4B1B6803F4C0637B607B68C1
:1008900024233B628123FB6201233B6400237B64AE
:1008A000B023BB640023FB6407F12003184602F069
:1008B0001FFC0346002B01D000F052FB4F23BB600E
:1008C0000023FB6000233B6100237B610023BB61AD
:1008D0000023FB6107F108030221184602F08AFF9A
:1008E0000346002B01D000F03BFB00BF6837BD463C
:1008F00080BD00BF0004005880B588B000AF30480C
:1009000000F016FE40F6161001F014FC034643F00A
:100910004003DBB2194640F6161001F0F7FB00F079
:1009200090FF0021002001F05BFB264801F0AEF8AB
:100930000E2001F007FD002000F074FF012001F0FF
:10094000EBF814214FF4E86001F0E0FB242140F2C1
:10095000417001F0DBFB01233B7104237B77012312
:10096000BB770023FB7707233B773B1D184601F03D
:10097000C7F9154B01221A70134B01229A74124BBE
:1009800000221A74104B0022DA740F4BFF225A74A3
:100990000D4B0822DA810C4801F084FA40F23670DF
:1009A00001F0C8FB034643F00403DBB2194640F2F2
:1009B000367001F0ABFB00BF2037BD4680BD00BFE5
:1009C000CD09000800A1BC339C00002080B582B096
:1009D00000AF0346FB80FB88B3F5007F13D0B3F56F
:1009E000007F26DC402B20D0402B22DC012B02D0C4
:1009F000022B04D01DE0124B124A1A601CE0104B6F
:100A0000114A1A6018E000F0DBFD0346042B03D105
:100A10000B4B0E4A1A600EE000F0D2FD0346052B88
:100A200009D1074B0A4A1A6005E0054B094A1A60CA
:100A300002E000BF00E000BF00BF0837BD4680BD38
:100A400098000020590A0008C10A0008B50B0008E8
:100A50001D0C0008890C000880B582B000AF7860DA
:100A60004FF0FF330F221449144804F0BCF87B68A0
:100A70001B78012B02D0022B0DD019E07B685B782C
:100A8000022B06D1786800F035F97B6801225A7094
:100A900000E000BF0CE07B685B78022B06D1786831
:100AA00000F056F97B6801225A7000E000BF00BFD9
:100AB00000BF0837BD4680BD70610008C00000203F
:100AC00080B582B000AF78604FF0FF330F22354918
:100AD000354804F088F87B681B78012B02D0022B84
:100AE00035D05BE07B685B78012B2ED1786800F015
:100AF000F1F97B68103304222C49184604F094FE67
:100B00000346002B0CD1012000F0CCFB022000F0AA
:100B1000E3FB786800F04AF97B6802225A7015E01E
:100B20007B68103304222249184604F07DFE0346F8
:100B3000002B06D1786800F00BF97B6802221A704E
:100B400004E0786800F0D6F800E000BF26E07B689B
:100B50005B78012B20D1786800F0BCF97B681033FA
:100B600004221349184604F05FFE0346002B0CD103
:100B7000022000F097FB012000F0AEFB786800F047
:100B80005FF97B6802225A7007E0786800F0B2F8DB
:100B90007B6801221A7000E000BF00BF00BF083769
:100BA000BD4680BD80610008C00000209061000843
:100BB0009861000880B582B000AF78604FF0FF33D5
:100BC00012221449144804F00EF87B681B78012B9C
:100BD00002D0022B0DD019E07B685B78022B06D186
:100BE000786800F087F87B6801225A7000E000BF47
:100BF0000CE07B685B78022B06D1786800F0A8F8DF
:100C00007B6801225A7000E000BF00BF00BF0837B8
:100C1000BD4680BDA0610008C000002080B582B044
:100C200000AF78604FF0FF3312221549154803F0EA
:100C3000DAFF7B681B78012B02D0022B12D01BE05D
:100C40007B685B78012B0BD17B68DB68184601F071
:100C5000E5FC786800F0AAF87B6802225A7000E090
:100C600000BF09E07B685B78012B03D1786800F056
:100C70006FF800E000BF00BF00BF0837BD4680BD71
:100C8000B4610008C000002080B582B000AF786079
:100C90004FF0FF3310221549154803F0A4FF7B687D
:100CA0001B78012B02D0022B12D01BE07B685B78F3
:100CB000012B0BD17B68DB68184601F0AFFC78682C
:100CC00000F074F87B6802225A7000E000BF09E06F
:100CD0007B685B78012B03D1786800F039F800E07D
:100CE00000BF00BF00BF0837BD4680BDC861000817
:100CF000C000002080B582B000AF78604FF0FF33B5
:100D000011221049104803F06EFF0023002240F228
:100D1000622140F2622000F05DFE0021012001F01E
:100D2000E9FA0A4BFF225A74084801F0BBF87B68C5
:100D30005B689B01184600F055FD00BF0837BD46B3
:100D400080BD00BFDC610008C00000209C000020C6
:100D500080B582B000AF78604FF0FF3310221049A9
:100D6000104803F040FF0023002240F2622140F2CD
:100D7000622000F02FFE0021012001F0BBFA0A4B97
:100D8000FF225A74084801F08DF87B685B689B016C
:100D9000184600F027FD00BF0837BD4680BD00BFE4
:100DA000F0610008C00000209C00002080B582B0E7
:100DB00000AF78607B689B68184601F02FFC4FF00D
:100DC000FF33092219491A4803F00DFF4FF0FF3392
:100DD00011221849164803F006FF0023002240F2B2
:100DE000012140F2012000F0F5FD0121012001F078
:100DF00081FA40F6890001F09DF9034643F00403AF
:100E0000DBB2194640F6890001F080F90A4B042252
:100E10005A74094801F046F800220421074800F0FE
:100E20000BFC00BF0837BD4680BD00BF0462000850
:100E3000C0000020106200089C000020986100089B
:100E400080B582B000AF78607B689B68184601F07F
:100E5000E5FB4FF0FF33092219491A4803F0C3FE9E
:100E60004FF0FF3310221849164803F0BCFE002350
:100E7000002240F2012140F2012000F0ABFD0121EF
:100E8000012001F037FA40F6890001F053F90346DA
:100E900043F00403DBB2194640F6890001F036F94D
:100EA0000A4B04225A74094800F0FCFF0022042176
:100EB000074800F0C1FB00BF0837BD4680BD00BF3A
:100EC00024620008C0000020306200089C0000205E
:100ED0009061000880B594B000AF786000214FF4B5
:100EE000126001F013F940F6441001F023F90346B3
:100EF00043F00203DBB2194640F6441001F006F954
:100F00007B6803F110007B6803F58873FF221946A4
:100F100000F070FB07F13C03184601F0A5F897F9C3
:100F200048301A4697F9493007F108000A4904F099
:100F30005BFC07F108031846FFF722F903469AB253
:100F400007F108014FF0FF33044803F04CFE00BFE7
:100F50005037BD4680BD00BF44620008C00000207D
:100F600080B400AF72B600BFFEE780B400AF00BF30
:100F7000BD4680BC704780B400AFFEE780B400AFD0
:100F8000FEE780B400AFFEE780B400AFFEE780B4B8
:100F900000AFFEE780B400AF00BFBD4680BC704725
:100FA00080B400AF00BFBD4680BC704780B400AFC6
:100FB00000BFBD4680BC704780B500AF01F012FB9A
:100FC00000BF80BD80B500AF024803F0EBFB00BF5F
:100FD00080BD00BFB000002080B485B000AF786055
:100FE0004FF0B0435A6E4FF0B0417B6813434B66ED
:100FF0004FF0B0435A6E7B681340FB60FB6800BF44
:101000001437BD4680BC704780B500AF064B082240
:101010001A60054803F044F90346002B01D0FFF79E
:101020009FFF00BF80BD00BFB000002080B582B030
:1010300000AF78600120FFF7CFFF002200213220AF
:1010400001F0E7FB322001F0FEFB00BF0837BD4690
:1010500080BD000080B586B000AF7860144A154BA3
:10106000D31A7B617B693B61134B1B68002B02D158
:10107000114B124A1A60104B1A687B6813443A6984
:101080009A4207D204F07EFB03460C221A604FF00E
:10109000FF3309E0084B1B68FB60074B1A687B684D
:1010A0001344054A1360FB6818461837BD4680BDD7
:1010B0000000012000040000BC0000207801002096
:1010C00080B400AF00BFBD4680BC704780B485B01F
:1010D00000AF78604FF0B043DA6C4FF0B0417B68FE
:1010E0001343CB644FF0B043DA6C7B681340FB6072
:1010F000FB6800BF1437BD4680BC704780B485B024
:1011000000AF78604FF0B0439A6D4FF0B0417B680C
:1011100013438B654FF0B0439A6D7B681340FB60BF
:10112000FB6800BF1437BD4680BC704780B500AF78
:10113000224B234A1A60214B4FF4E1325A601F4B75
:1011400000229A601D4B0022DA601C4B00221A61BB
:101150001A4B0C225A61194B00229A61174B00223C
:10116000DA61164B00221A62144B00225A62134BAA
:1011700000229A62114803F0DEFC0346002B01D0E6
:10118000FFF7EEFE00210D4804F017FA0346002B8E
:1011900001D0FFF7E5FE0021084804F04CFA0346B1
:1011A000002B01D0FFF7DCFE044804F0CEF9034623
:1011B000002B01D0FFF7D4FE00BF80BDC00000208F
:1011C0000044004080B596B000AF786007F144035A
:1011D00000221A605A609A60DA601A6107F10C0303
:1011E00038220021184604F0F7FA7B681B68174A7A
:1011F000934226D10223FB604FF440237B6107F129
:101200000C03184602F098FE0346002B01D0FFF7AE
:10121000A7FE4FF40030FFF771FF0120FFF756FFE4
:1012200004237B641223BB640123FB6400233B651E
:1012300007237B6507F1440319464FF0904001F006
:101240001DFB00BF5837BD4680BD00BF00440040B5
:101250000D488546FFF734FF0C480D490D4A002321
:1012600002E0D458C4500433C4188C42F9D30A4A5B
:101270000A4C002301E013600432A242FBD304F0C5
:1012800087FAFFF7A3F9FEE7000001200000002025
:101290007C000020AC6300087C0000207801002066
:1012A000FEE7000080B582B000AF0346FB71FB791A
:1012B000074A52F82300FB79064A32F8133000221D
:1012C000194601F03BFC002318460837BD4680BD97
:1012D000040000203863000880B582B000AF0346E8
:1012E000FB71FB79074A52F82320FB79064931F854
:1012F00013301946104601F038FC00231846083711
:10130000BD4680BD040000203863000880B485B06D
:1013100000AF78604FF0B043DA6C4FF0B0417B68BB
:101320001343CB644FF0B043DA6C7B681340FB602F
:10133000FB6800BF1437BD4680BC704780B586B0DF
:1013400000AF3B1D00221A605A609A60DA601A6191
:101350000420FFF7DBFF10237B600123BB60002329
:10136000FB6003233B613B1D1946124801F086FADE
:1013700020237B603B1D19460E4801F07FFA0823AD
:101380007B603B1D19460B4801F078FA00222021B2
:10139000084801F0D3FB00221021064801F0CEFBE3
:1013A00000220821034801F0C9FB00231846183722
:1013B000BD4680BD0008004880B582B000AF03463E
:1013C000FB71FB79032B4BD801A252F823F000BF2D
:1013D000E11300080114000821140008411400085A
:1013E00000220821214801F0A9FB002210211F48FA
:1013F00001F0A4FB002220211C4801F09FFB30E0FB
:1014000001220821194801F099FB012210211748F7
:1014100001F094FB00222021144801F08FFB20E012
:1014200001220821114801F089FB012210210F48F7
:1014300001F084FB012220210C4801F07FFB10E029
:1014400001220821094801F079FB002210210748F8
:1014500001F074FB01222021044801F06FFB00E041
:1014600000BF002318460837BD4680BD000800486D
:1014700080B400AF00231846BD4680BC704780B4DE
:1014800000AF01231846BD4680BC704780B400AF52
:1014900001231846BD4680BC704780B485B000AFBC
:1014A0000346FB71FB79002B02D10F23FB6001E0A7
:1014B0001623FB60FB6818461437BD4680BC704796
:1014C00080B500AFFFF73AFF0346184680BD80B5F0
:1014D00082B000AF0346FB71FB791846FFF76CFF43
:1014E000034618460837BD4680BD80B500AFFFF7FC
:1014F000BFFF0346184680BD80B500AFFFF7BFFFB2
:101500000346184680BD80B500AFFFF7BFFF034616
:10151000184680BD80B582B000AF0346FB71FB79F1
:101520001846FFF7BAFF034618460837BD4680BD88
:1015300080B584B000AF78607B68002B02D01D4A74
:101540007B681360FFF760FD022000F0CFFF1A4BAD
:1015500000221A70002000F009F9FFF7CDFF0346C2
:10156000012B0ED14021012000F06EFA002140F63F
:10157000111000F0CBFD7F233B73387B00F078F92E
:1015800009E0202140F6111000F0C0FD202140F6B6
:10159000121000F0BBFD0E2140F61F1000F0B6FD4A
:1015A000FFF78EFF054B01221A7000BF1037BD46B2
:1015B00080BD00BF600100205C01002054010020BC
:1015C00080B400AF024B1B781846BD4680BC704704
:1015D0005401002080B582B000AF78600B46FB70EC
:1015E000FB781A467968002000F0FCFD00BF083740
:1015F000BD4680BD80B586B000AFF860B9601346C7
:10160000FB710023FB7507F117031946B86800F05A
:10161000FFFCBB681B78FA799A4201D2012307E0EC
:10162000F87DBB681B781A46F96800F0FDFD0023C1
:1016300018461837BD4680BD80B584B000AFF8604D
:101640000B467A60FB72FB7A1946F868FFF7C2FF17
:10165000786800F0A7F800BF1037BD4680BD80B5A0
:1016600084B000AF0346FB80FB881B0A9BB2DBB251
:101670003B73FB88DBB27B7300F06AFA0346002BF6
:1016800008D107F10C030222194640F2BC6000F0B9
:1016900065FD00E000BF00BF1037BD4680BD80B5CE
:1016A00084B000AF0346FB80FB881B0A9BB2DBB211
:1016B0003B73FB88DBB27B7300F04AFA0346002BD6
:1016C00008D107F10C030222194640F2BE6000F077
:1016D00045FD00E000BF00BF1037BD4680BD80B5AE
:1016E00082B000AF00233B600023FB710023BB717D
:1016F00040F6E20000F01EFD0346FB71FB7923F08B
:101700000103DBB2194640F6E20000F0FFFC40F6B0
:10171000E50000F00FFD0346BB71BB7903F07F03CA
:10172000DBB2194640F6E50000F0F0FC6FF07F40B8
:1017300000F058F83B460422194640F6190000F024
:101740002FFD002000F012F8FB79194640F6E20068
:1017500000F0DCFCBB79194640F6E50000F0D6FC51
:101760003B6818460837BD4680BD000080B582B092
:1017700000AF0346FB71FB1D01221946802000F0DB
:1017800075FDFB79002B03D1054B01221A7002E095
:10179000034B02221A7000BF0837BD4680BD00BF50
:1017A0005401002080B584B000AF78600C4B042257
:1017B0001A707B681B0CDBB23B737B681B0ADBB2C5
:1017C0007B737B68DBB2BB7307F10C030322194602
:1017D000832000F04BFD00BF1037BD4680BD00BF29
:1017E0005401002080B584B000AF78600C4B052216
:1017F0001A707B681B0CDBB23B737B681B0ADBB285
:101800007B737B68DBB2BB7307F10C0303221946C1
:10181000822000F02BFD00BF1037BD4680BD00BF09
:101820005401002080B582B000AF0346FB71FB1D60
:10183000012219469F2000F019FD00BF0837BD4660
:1018400080BD80B582B000AFFFF75DFE0346012B7F
:1018500002D10123FB7101E00023FB71FB1D01227A
:101860001946962000F002FD00BF0837BD4680BD36
:1018700080B584B000AF38713B79C3F38013DBB21D
:101880009B015AB23B79C3F34013DBB25B015BB2FD
:1018900013435AB23B79C3F30013DBB21B015BB2B3
:1018A00013435AB23B79C3F3C003DBB2DB005BB234
:1018B00013435AB23B79C3F38003DBB29B005BB2A4
:1018C00013435AB23B79C3F34003DBB25B005BB214
:1018D00013435AB23B79C3F30003DBB25BB2134349
:1018E0005BB2DBB2FB7307F10F03012219468920BB
:1018F00000F0BCFC00BF1037BD4680BD80B584B091
:1019000000AF78607B681D4A934204D9E1233B73A2
:10191000E9237B7327E07B68194A934204D9D723D4
:101920003B73DB237B731EE07B68164A934204D92A
:10193000C1233B73C5237B7315E07B68124A934236
:1019400004D975233B7381237B730CE07B680F4ABA
:10195000934204D96B233B736F237B7303E02923EA
:101960003B732B237B7307F10C030222194698204B
:1019700000F07CFC00BF1037BD4680BD00E9A435F7
:1019800080F8A9328044E52D000B6B1B40FC5419F4
:1019900090B585B000AF0446084611461A46234666
:1019A000FB710346BB710B467B7113463B71FB79A0
:1019B0003B73BB797B737B79BB733B79FB7307F11B
:1019C0000C0304221946952000F050FC00BF143788
:1019D000BD4690BD90B585B000AF0446084611469F
:1019E0001A462346FB800346BB800B467B8013468A
:1019F0003B80FB881B0A9BB2DBB23B72FB88DBB2ED
:101A00007B72BB881B0A9BB2DBB2BB72BB88DBB2AA
:101A1000FB727B881B0A9BB2DBB23B737B88DBB219
:101A20007B733B881B0A9BB2DBB2BB733B88DBB288
:101A3000FB7307F1080308221946082000F016FC82
:101A400000BF1437BD4690BD80B584B000AF0346DB
:101A50003960FB71FB7903F00703DBB23B733B6832
:101A60001B0CDBB27B733B681B0ADBB2BB733B68AE
:101A7000DBB2FB7307F10C0304221946972000F038
:101A8000F5FB00BF1037BD4680BD00002DE9B04317
:101A900084B000AF78600023FB601D4B1B7883F09F
:101AA0000103DBB2002B05D07868FFF727FF184B46
:101AB00001221A707B6800221C4615464FEAD41991
:101AC0004FEA4468134A4FF0000340464946FEF788
:101AD000AFFB02460B461346FB60FB681B0EDBB2F6
:101AE0003B72FB681B0CDBB27B72FB681B0ADBB230
:101AF000BB72FB68DBB2FB7207F1080304221946D4
:101B0000862000F0B3FB00BF1037BD46BDE8B083B0
:101B10005C0100200048E80180B582B000AF0346B8
:101B2000FB71FA79094B1A70FB79002B04D1002163
:101B300040F2AC6000F0EAFAFB1D012219468A204F
:101B400000F094FB00BF0837BD4680BD5501002062
:101B500080B400AF024B1B781846BD4680BC70476E
:101B60005501002080B584B000AF0346FB710B46E1
:101B7000BB7113467B71FB79012B49D10020FFF724
:101B8000C9FCF86097F90630FA689A4201DAFB68F6
:101B9000BB71FB680E2B0ED1012301220021042012
:101BA000FFF7F6FEBA79FB68DBB2D31ADBB20E336D
:101BB000DBB2BB711FE0FB680A2B0ED101230122AF
:101BC00000210120FFF7E4FEBA79FB68DBB2D31AEB
:101BD000DBB20D33DBB2BB710DE00123012200212A
:101BE0000720FFF7D5FEBA79FB68DBB2D31ADBB268
:101BF0000E33DBB2BB7197F9063013F1110F01DA26
:101C0000EF23BB71182140F6E70000F07FFA67E090
:101C100040F6D80000F08EFA034643F01E03DBB214
:101C2000194640F6D80000F071FA0120FFF772FC67
:101C3000F86097F90630FA689A4201DAFB68BB71DE
:101C4000FB68142B0ED10123002205210320FFF78E
:101C50009FFEBA79FB68DBB2D31ADBB21633DBB274
:101C6000BB7131E0FB68112B0ED10123002203214F
:101C70000220FFF78DFEBA79FB68DBB2D31ADBB224
:101C80001633DBB2BB711FE0FB680E2B0ED10123B4
:101C9000002202210220FFF77BFEBA79FB68DBB24B
:101CA000D31ADBB20E33DBB2BB710DE0012300228D
:101CB00007210420FFF76CFEBA79FB68DBB2D31A68
:101CC000DBB21633DBB2BB7197F9063013F1090FA3
:101CD00001DAF723BB71382140F6E70000F016FA6D
:101CE000BB793B727B797B7207F1080302221946AC
:101CF0008E2000F0BBFA00BF1037BD4680BD00004B
:101D00002DE9B04386B000AF786000237B61614A63
:101D100007F1080392E8030083E803007B681A7860
:101D20005D4B1B789A4204D07B681B781846FFF7FE
:101D3000F3FE7B681B78032B00F2A58001A252F80A
:101D400023F000BF551D0008151E0008D71D000810
:101D5000431E00080823FB747B685B684F4AB2FB94
:101D6000F3F37B617B691B0CDBB23B727B691B0A63
:101D7000DBB27B727B69DBB2BB727B681B7BFB7265
:101D80007B685B7B3B737B689B6800221C46154627
:101D90004FEAD4194FEA4468414A4FF000034046E5
:101DA0004946FEF745FA02460B4613467B617B69BE
:101DB0001B0CDBB27B737B691B0ADBB2BB737B69D9
:101DC000DBB2FB73FB7C9AB207F1080319468B2048
:101DD00000F04CFA58E00423FB747B681B692F4A1F
:101DE000B2FBF3F37B617B691B0CDBB23B727B695B
:101DF0001B0ADBB27B727B69DBB2BB727B681B7D2B
:101E0000FB72FB7C9AB207F1080319468B2000F0A5
:101E10002DFA39E00423FB747B681B7E3B727B68E0
:101E20005B7E7B727B689B7EBB727B68DB7EFB721A
:101E3000FB7C9AB207F1080319468B2000F016FAD2
:101E400022E00523FB747B685B68144AB2FBF3F362
:101E50007B617B691B0CDBB23B727B691B0ADBB2CB
:101E60007B727B69DBB2BB727B681B7BFB727B681E
:101E70005B7B3B73FB7C9AB207F1080319468B200E
:101E800000F0F4F900E000BF00BF1837BD46BDE820
:101E9000B08300BF68620008550100200000093DC2
:101EA0000048E80180B586B000AF78600023BB75BC
:101EB000484A07F10C0307CA03C31A707B681A78F3
:101EC000454B1B789A4204D07B681B781846FFF775
:101ED00023FE7B681B78032B78D801A252F823F0ED
:101EE000F11E0008811F0008751F0008F11E000880
:101EF0007B685B7AF12B0AD14FF6FF70FFF7AFFBDF
:101F000048F20500FFF7CBFB0223BB7511E07B68AD
:101F10005B7AF22B0AD141F60F50FFF7A0FB41F29A
:101F20002100FFF7BCFB0623BB7502E07B685B7AF0
:101F3000BB750923FB757B685B881B0A9BB2DBB210
:101F40003B737B685B88DBB27B737B681B79BB73FD
:101F50007B685B79FB737B689B793B747B68DB797F
:101F60007B747B681B7ABB74BB7DFB747B689B7A3C
:101F70003B7522E00123FB757B681B7B3B731CE0F8
:101F80000623FB757B68DB891B0A9BB2DBB23B73C4
:101F90007B68DB89DBB27B737B681A7C0F4B114655
:101FA00019701346BB737B685B7CFB737B689B7CFF
:101FB0003B747B68DB7C7B7400BFFB7D9AB207F1CE
:101FC0000C0319468C2000F051F900E000BF1837CF
:101FD000BD4680BD706200085501002056010020FA
:101FE00080B584B000AF03460A46FB711346BB714F
:101FF000FB793B73BB797B7307F10C030222194613
:102000008F2000F033F900BF1037BD4680BD0000BF
:1020100080B584B000AF7860396007F10C0302220C
:102020001946132000F044F9FFF792FD0346012BF7
:102030000DD10C4B1B78DBB2012B08D140F20270A2
:1020400000F078F803461A467B681A7002E03A7B83
:102050007B681A707A7B3B681A7000BF1037BD46E8
:1020600080BD00BF5601002080B584B000AF78600D
:1020700007F10C0303221946142000F019F9FFF7A9
:1020800067FD03461A467B681A707B681B78002B35
:1020900002D0012B13D02AE03A7B7B681A717B7B3C
:1020A0005B425B105AB27B689A71BB7B5B425B10F0
:1020B0005AB27B685A717B6800229A6020E03B7BB1
:1020C0005B425B105AB27B681A737B7B5BB2023354
:1020D0009B105AB27B685A73BB7B5B425B105AB24F
:1020E0007B689A73084B1A687B681A6108E01422AF
:1020F0000021786803F02AFB7B680F221A7000BF6A
:1021000000BF1037BD4680BD5801002080B582B0A9
:1021100000AF03460A46FB8013467B717A1DF9889F
:102120000123034802F020F900BF0837BD4680BDF7
:10213000B000002080B584B000AF0346FB8007F1FB
:102140000F02F9880123044802F06DF9FB7B184661
:102150001037BD4680BD00BFB000002080B586B0FE
:1021600000AF03463960FB801346BB80EFF310835A
:10217000FB60FB687B6172B600BFBB88F9883A6878
:10218000064802F0F1F87B693B613B6983F31088F4
:1021900000BF00BF1837BD4680BD00BFB0000020A3
:1021A00080B586B000AF03463960FB801346BB8024
:1021B000EFF31083FB60FB687B6172B600BFBB88E6
:1021C000F9883A68064802F02EF97B693B613B6961
:1021D00083F3108800BF00BF1837BD4680BD00BF25
:1021E000B000002080B586B000AF03463960FB71B7
:1021F0001346BB71EFF31083FB60FB687B6172B623
:1022000000BFBB799BB2F9793A68064802F01FFA21
:102210007B693B613B6983F3108800BF00BF1837BF
:10222000BD4680BDB000002080B586B000AF03463B
:102230003960FB711346BB71EFF31083FB60FB68E1
:102240007B6172B600BFBB799BB2F9793A680648E8
:1022500002F050FA7B693B613B6983F3108800BF51
:1022600000BF1837BD4680BDB000002080B586B0E5
:1022700000AF03463960FB711346BB80EFF3108358
:10228000FB60FB687B6172B600BFBB88F9793A6876
:10229000064802F029F97B693B613B6983F31088AA
:1022A00000BF00BF1837BD4680BD00BFB000002092
:1022B00080B586B000AF03463960FB711346BB8022
:1022C000EFF31083FB60FB687B6172B600BFBB88D5
:1022D000F9793A68064802F066F97B693B613B6927
:1022E00083F3108800BF00BF1837BD4680BD00BF14
:1022F000B000002080B584B000AF03460A46FB71F1
:102300001346BB710123FB73BB79012B0DD1FB7904
:10231000012B04D10223FB73042000F0E7F8FB79C2
:10232000022B07D10323FB7304E0BB79002B01D1FF
:102330000123FB73FB7B1846FFF7C9F800BF10377A
:10234000BD4680BD80B584B000AF0346FB7101235C
:10235000FB73FFF7CAF8B860BB68022B16D0BB68E6
:10236000022B16DCBB68002B03D0BB68012B0AD004
:102370000FE097F907300F2B02DD0223FB7309E012
:102380000123FB7306E00123FB7303E00223FB73CD
:1023900000E000BF97F90710FB7B02221846FFF709
:1023A000E1FBFB7B18461037BD4680BD80B582B08F
:1023B00000AF7860034B1B680120984700BF0837C7
:1023C000BD4680BD6001002080B582B000AF78605E
:1023D000034B1B680220984700BF0837BD4680BDED
:1023E0006001002080B582B000AF7860034B1B68AD
:1023F0004020984700BF0837BD4680BD60010020DF
:1024000080B582B000AF78600B46FB70FB78002B84
:1024100002D0012B05D00AE0074B1B6880209847AB
:1024200005E0054B1B684FF48070984700BF00BF64
:102430000837BD4680BD00BF6001002080B582B076
:1024400000AF7860044B1B684FF40070984700BFE2
:102450000837BD4680BD00BF6001002080B582B056
:1024600000AF7860034B1B682020984700BF0837F7
:10247000BD4680BD6001002080B582B000AF7860AD
:10248000034B1B680420984700BF0837BD4680BD3A
:102490006001002080B582B000AF7860034B1B68FC
:1024A0000820984700BF0837BD4680BD6001002066
:1024B00080B582B000AF7860034B1B68102098474E
:1024C00000BF0837BD4680BD6001002080B582B0E6
:1024D00000AF7860044B1B684FF48040984700BF02
:1024E0000837BD4680BD00BF6001002080B584B0C4
:1024F00000AF0346FB71FFF706F80346012B12D12C
:1025000040F62310FFF716FE0346FB73FB7B23F018
:102510000603FB73FA7BFB791343DBB2194640F6E3
:102520002310FFF7F3FD00BF1037BD4680BD00004C
:1025300080B582B000AF0023FB71032000F05EF98C
:1025400001F01CFB0346094A13600F2000F010F84D
:102550000346002B02D00123FB7101E0FEF705FDCD
:10256000FB7918460837BD4680BD00BF000000203B
:1025700080B584B000AF78600023FB73174B1B78E5
:10258000002B24D001F0FAFA0246144B1B781946AE
:102590004FF47A73B3FBF1F3B2FBF3F3184600F098
:1025A00060F90346002B0FD17B680F2B09D800225E
:1025B00079684FF0FF3000F02CF9094A7B6813600E
:1025C00007E00123FB7304E00123FB7301E0012317
:1025D000FB73FB7B18461037BD4680BD14000020FE
:1025E0001000002080B400AF054B1B781A46054B45
:1025F0001B681344034A136000BFBD4680BC70478C
:10260000140000206401002080B400AF024B1B685E
:102610001846BD4680BC70476401002080B584B078
:1026200000AF7860FFF7F0FFB8607B68FB60FB6885
:10263000B3F1FF3F05D00A4B1B781A46FB681344E1
:10264000FB6000BFFFF7E0FF0246BB68D31AFA68E1
:102650009A42F7D800BF00BF1037BD4680BD00BF0B
:102660001400002080B485B000AF78607B6803F070
:102670000703FB600C4BDB68BB60BA684FF6FF03D7
:102680001340BB60FB681A02BB68134343F0BF638F
:1026900043F40033BB60044ABB68D36000BF143707
:1026A000BD4680BC704700BF00ED00E080B400AFC5
:1026B000044BDB681B0A03F007031846BD4680BCC9
:1026C000704700BF00ED00E080B483B000AF034668
:1026D000FB7197F90730002B0BDBFB7903F01F022E
:1026E000064997F907305B09012000FA02F241F828
:1026F000232000BF0C37BD4680BC704700E100E0DE
:1027000080B483B000AF03463960FB7197F907309E
:10271000002B0ADB3B68DAB20C4997F9073012014B
:10272000D2B20B4483F800230AE03B68DAB20849CE
:10273000FB7903F00F03043B1201D2B20B441A766B
:1027400000BF0C37BD4680BC704700BF00E100E011
:1027500000ED00E080B489B000AFF860B9607A6045
:10276000FB6803F00703FB61FB69C3F10703042B5C
:1027700028BF0423BB61FB690433062B02D9FB6924
:10278000033B00E000237B614FF0FF32BB6902FA9C
:1027900003F3DA43BB681A407B699A404FF0FF317C
:1027A0007B6901FA03F3D9437B680B401343184656
:1027B0002437BD4680BC704780B582B000AF7860DA
:1027C0007B68013BB3F1807F01D301230FE00A4A0C
:1027D0007B68013B53600F214FF0FF30FFF790FF04
:1027E000054B00229A60044B07221A60002318460A
:1027F0000837BD4680BD00BF10E000E080B582B064
:1028000000AF78607868FFF72DFF00BF0837BD463E
:1028100080BD80B586B000AF0346B9607A60FB73B7
:10282000FFF744FF78617A68B9687869FFF792FF2B
:10283000024697F90F3011461846FFF761FF00BFB7
:102840001837BD4680BD80B582B000AF0346FB712E
:1028500097F907301846FFF737FF00BF0837BD4626
:1028600080BD80B582B000AF78607868FFF7A4FFC4
:10287000034618460837BD4680BD000080B487B0C7
:1028800000AF7860396000237B6140E13B681A68E3
:1028900001217B6901FA03F31340FB60FB68002B05
:1028A00000F032813B685B6803F00303012B05D025
:1028B0003B685B6803F00303022B30D17B689B68A5
:1028C0003B617B695B00032202FA03F3DB433A6955
:1028D00013403B613B68DA687B695B0002FA03F3F3
:1028E0003A6913433B617B683A699A607B685B682D
:1028F0003B6101227B6902FA03F3DB433A6913402F
:102900003B613B685B681B0903F001027B6902FACB
:1029100003F33A6913433B617B683A695A603B6849
:102920005B6803F00303032B17D07B68DB683B6114
:102930007B695B00032202FA03F3DB433A6913402D
:102940003B613B689A687B695B0002FA03F33A6972
:1029500013433B617B683A69DA603B685B6803F06C
:102960000303022B23D17B69DA087B68083253F812
:1029700022303B617B6903F007039B000F2202FAC0
:1029800003F3DB433A6913403B613B681A697B6997
:1029900003F007039B0002FA03F33A6913433B6118
:1029A0007B69DA087B680832396943F822107B6852
:1029B0001B683B617B695B00032202FA03F3DB4384
:1029C0003A6913403B613B685B6803F003027B6933
:1029D0005B0002FA03F33A6913433B617B683A698F
:1029E0001A603B685B6803F44033002B00F08C8076
:1029F0004E4A7B699B08023352F823303B617B6966
:102A000003F003039B00072202FA03F3DB433A6956
:102A100013403B617B68B3F1904F0DD07B68444A13
:102A2000934207D07B68434A934201D1022304E0DA
:102A3000072302E0012300E000237A6902F0030289
:102A4000920093403A6913433B6138497B699B0884
:102A500002333A6941F82320374B1B683B61FB681E
:102A6000DB433A6913403B613B685B6803F48013C6
:102A7000002B03D03A69FB6813433B612E4A3B6944
:102A800013602D4B5B683B61FB68DB433A69134085
:102A90003B613B685B6803F40013002B03D03A6989
:102AA000FB6813433B61244A3B695360224BD3F8D4
:102AB00080303B61FB68DB433A6913403B613B6814
:102AC0005B6803F48033002B03D03A69FB6813433F
:102AD0003B61194A3B69C2F88030174BD3F8843008
:102AE0003B61FB68DB433A6913403B613B685B68D1
:102AF00003F40033002B03D03A69FB6813433B61B6
:102B00000D4A3B69C2F884307B6901337B613B68C5
:102B10001A687B6922FA03F3002B7FF4B7AE00BF7B
:102B200000BF1C37BD4680BC704700BF000001409D
:102B300000040048000800480008005880B483B032
:102B400000AF78600B467B8013467B707B78002B50
:102B500003D07A887B689A6102E07A887B689A62FF
:102B600000BF0C37BD4680BC704780B485B000AF55
:102B700078600B467B807B685B69FB607A88FB68CA
:102B800013401A04FB68D9437B880B401A437B68C7
:102B90009A6100BF1437BD4680BC704780B400AF57
:102BA000044B1B68034A43F48073136000BFBD46A7
:102BB00080BC70470004005880B400AF034B1B6812
:102BC00003F4C0631846BD4680BC7047000400583B
:102BD00080B400AF064B1B6803F48073B3F5807FAD
:102BE00001D1012300E000231846BD4680BC704798
:102BF0000004005880B400AF4FF0B0431B684FF0A2
:102C0000B04243F40013136000BFBD4680BC704760
:102C100080B400AF4FF0B0431B684FF0B04223F4D4
:102C20000013136000BFBD4680BC704780B400AF86
:102C30004FF0B0431B6803F48013B3F5801F01D13C
:102C4000012300E000231846BD4680BC704780B4D5
:102C500000AF4FF0B0431B684FF0B04243F48033F5
:102C6000136000BFBD4680BC704780B400AF4FF01A
:102C7000B0431B684FF0B04223F48033136000BFB1
:102C8000BD4680BC704780B400AF4FF0B0431B68B6
:102C900003F40033B3F5003F01D1012300E000232A
:102CA0001846BD4680BC704780B400AF4FF0B043BB
:102CB0001B684FF0B04243F48073136000BFBD4601
:102CC00080BC704780B400AF4FF0B0431B684FF03A
:102CD000B04223F48073136000BFBD4680BC7047D0
:102CE00080B400AF4FF0B0431B6803F48063B3F5CA
:102CF000806F01D1012300E000231846BD4680BC4F
:102D0000704780B483B000AF78604FF0B0435B6829
:102D100023F0FE427B681B064FF0B04113434B602B
:102D200000BF0C37BD4680BC704780B400AF4FF089
:102D3000B043D3F8903003F00203022B01D10123FA
:102D400000E000231846BD4680BC704780B400AF49
:102D50004FF0B043D3F894304FF0B04243F001034A
:102D6000C2F8943000BFBD4680BC704780B400AF4D
:102D70004FF0B043D3F894304FF0B04223F001034A
:102D8000C2F8943000BFBD4680BC704780B400AF2D
:102D90004FF0B043D3F8943003F00203022B01D17B
:102DA000012300E000231846BD4680BC704780B474
:102DB00000AF4FF0B0431B684FF0B04243F0010347
:102DC000136000BFBD4680BC704780B400AF4FF0B9
:102DD000B0431B684FF0B04223F00103136000BF03
:102DE000BD4680BC704780B400AF4FF0B0431B6855
:102DF00003F00203022B01D1012300E00023184657
:102E0000BD4680BC704780B400AF4FF0B0431B6834
:102E100003F00803082B01D1012300E0002318462A
:102E2000BD4680BC704780B400AF4FF0B0431B6814
:102E300003F0F0031846BD4680BC704780B400AF75
:102E40004FF0B043D3F8943003F470631846BD4696
:102E500080BC704780B483B000AF78604FF0B0435F
:102E60005B6823F47F427B681B024FF0B041134341
:102E70004B6000BF0C37BD4680BC704780B483B048
:102E800000AF78604FF0B0439B6823F003024FF02F
:102E9000B0417B6813438B6000BF0C37BD4680BCDC
:102EA000704780B400AF4FF0B0439B6803F00C0351
:102EB0001846BD4680BC704780B483B000AF7860D0
:102EC0004FF0B0439B6823F0F0024FF0B0417B68B5
:102ED00013438B6000BF0C37BD4680BC704780B485
:102EE00083B000AF78604FF0B043D3F8083123F0DF
:102EF0000F027B681B094FF0B0411343C1F8083142
:102F000000BF0C37BD4680BC704780B483B000AFB3
:102F100078604FF0B0439B6823F4E0624FF0B0411B
:102F20007B6813438B6000BF0C37BD4680BC704785
:102F300080B483B000AF78604FF0B0439B6823F457
:102F400060524FF0B0417B6813438B6000BF0C3779
:102F5000BD4680BC704780B400AF4FF0B0439B6863
:102F600003F0F0031846BD4680BC704780B400AF44
:102F70004FF0B043D3F808311B0103F0F0031846BB
:102F8000BD4680BC704780B400AF4FF0B0439B6833
:102F900003F4E0631846BD4680BC704780B400AFC0
:102FA0004FF0B0439B6803F460531846BD4680BCA5
:102FB000704780B400AF4FF0B0431B684FF0B04291
:102FC00043F08073136000BFBD4680BC704780B47F
:102FD00000AF4FF0B0431B684FF0B04223F0807356
:102FE000136000BFBD4680BC704780B400AF4FF097
:102FF000B0431B6803F00073B3F1007F01D10123DC
:1030000000E000231846BD4680BC704780B400AF86
:103010004FF0B043DB681B0A03F07F031846BD4640
:1030200080BC704780B400AF4FF0B043DB6803F062
:1030300060431846BD4680BC704780B400AF4FF077
:10304000B043DB6803F070031846BD4680BC704790
:1030500080B400AF4FF0B043DB6803F003031846C1
:10306000BD4680BC704780B400AF4FF0B0439B6852
:1030700003F48033B3F5803F01D1012300E0002346
:103080001846BD4680BC704780B400AF4FF0B043D7
:10309000D3F8083103F48033B3F5803F01D1012325
:1030A00000E000231846BD4680BC704780B400AFE6
:1030B0004FF0B0439B6803F40033B3F5003F01D1F8
:1030C000012300E000231846BD4680BC704780B451
:1030D00000AF4FF0B0439B6803F48023B3F5802F1B
:1030E00001D1012300E000231846BD4680BC704793
:1030F00080B588B000AF78607B68002B01D10123D8
:103100006FE3FFF7CEFEF861FFF7A2FFB8617B68BF
:103110001B6803F02003002B00F0C480FB69002B28
:1031200005D0FB690C2B76D1BB69012B73D17B6871
:103130001B6A002B01D1012353E37B689A6A4FF08D
:10314000B0431B6803F00803002B05D04FF0B043D9
:103150001B6803F0F00306E04FF0B043D3F894305F
:103160001B0903F0F003934222D27B689B6A184646
:1031700000F03CFD0346002B01D0012331E34FF06A
:10318000B0431B684FF0B04243F0080313604FF0A8
:10319000B0431B6823F0F0027B689B6A4FF0B0419C
:1031A00013430B607B685B6A1846FFF753FE21E010
:1031B0004FF0B0431B684FF0B04243F00803136078
:1031C0004FF0B0431B6823F0F0027B689B6A4FF01E
:1031D000B04113430B607B685B6A1846FFF73AFE09
:1031E0007B689B6A184600F001FD0346002B01D066
:1031F0000123F6E200F0C2FC0346A74A1360A74B86
:103200001B681846FFF7B4F90346FB74FB7C002BE0
:1032100047D0FB7CE5E27B681B6A002B2CD0FFF7D4
:10322000C6FDFFF7F1F9786108E0FFF7EDF9024616
:103230007B69D31A022B01D90323D2E2FFF7D3FD16
:103240000346002BF1D04FF0B0431B684FF0B04263
:1032500043F0080313604FF0B0431B6823F0F00203
:103260007B689B6A4FF0B04113430B607B685B6ADD
:103270001846FFF7EFFD15E0FFF7A7FDFFF7C4F9CC
:10328000786108E0FFF7C0F902467B69D31A022B88
:1032900001D90323A5E2FFF7A6FD0346002BF1D1D8
:1032A00000E000BF7B681B6803F00103002B58D0CF
:1032B000FB69082B05D0FB690C2B08D1BB69032BDC
:1032C00005D17B685B68002B4BD1012389E24FF06D
:1032D000B0431B6823F480127B689B684FF0B041B9
:1032E00013430B607B685B68B3F5803F02D1FFF747
:1032F000AEFC0DE07B685B68B3F5041F04D1FFF7FB
:1033000079FCFFF7A4FC03E0FFF7AFFCFFF780FCBC
:103310007B685B68002B12D0FFF776F9786108E0D4
:10332000FFF772F902467B69D31A642B01D9032394
:1033300057E2FFF7A8FC0346002BF1D011E0FFF79E
:1033400063F9786108E0FFF75FF902467B69D31AF9
:10335000642B01D9032344E2FFF795FC0346002BBD
:10336000F1D17B681B6803F00203002B46D0FB6998
:10337000042B05D0FB690C2B0ED1BB69022B0BD1A2
:103380007B681B69002B01D101232AE27B685B6902
:103390001846FFF7B6FC31E07B681B69002B19D09B
:1033A000FFF782FCFFF730F9786108E0FFF72CF9AE
:1033B00002467B69D31A022B01D9032311E2FFF7DE
:1033C0008FFC0346002BF1D07B685B691846FFF742
:1033D00098FC13E0FFF776FCFFF716F9786108E038
:1033E000FFF712F902467B69D31A022B01D9032396
:1033F000F7E1FFF775FC0346002BF1D17B681B68F2
:1034000003F00803002B6ED07B689B69002B56D01D
:103410004FF0B043D3F89430FB607B68DA69FB6807
:1034200003F010039A4231D0FB6803F00203002B33
:1034300006D0FB6803F00103002B01D10123D0E18A
:10344000FB6803F00103002B13D0FFF78FFCFFF79D
:10345000DBF8786108E0FFF7D7F802467B69D31AFA
:10346000112B01D90323BCE1FFF790FC0346002B8D
:10347000F1D14FF0B043D3F8943023F010027B68C1
:10348000DB694FF0B0411343C1F89430FFF75EFCA5
:10349000FFF7BAF878610CE000000020100000206F
:1034A000FFF7B2F802467B69D31A112B01D9032327
:1034B00097E1FFF76BFC0346002BF1D013E0FFF719
:1034C00055FCFFF7A1F8786108E0FFF79DF8024688
:1034D0007B69D31A112B01D9032382E1FFF756FC34
:1034E0000346002BF1D17B681B6803F00403002B1B
:1034F00000F0D880FFF76CFB0346002B13D1FFF7D9
:103500004DFBFFF781F8786108E0FFF77DF8024690
:103510007B69D31A022B01D9032362E1FFF758FB21
:103520000346002BF1D07B68DB68002B7BD07B68E7
:10353000DB68852B03D07B68DB68052B09D14FF056
:10354000B043D3F890304FF0B04243F00403C2F8D8
:103550009030FFF759F878614FF0B043D3F89030CE
:103560004FF0B04243F00103C2F890300AE0FFF799
:103570004BF802467B69D31A41F28832934201D953
:1035800003232EE1FFF7D1FB0346002BEFD07B682E
:10359000DB68812B03D07B68DB68852B21D1FFF7AB
:1035A00033F878614FF0B043D3F890304FF0B04229
:1035B00043F08003C2F890300AE0FFF725F8024696
:1035C0007B69D31A41F28832934201D9032308E17F
:1035D0004FF0B043D3F8903003F40063002BECD0ED
:1035E00060E0FFF711F878614FF0B043D3F8903006
:1035F0004FF0B04223F08003C2F890300AE0FFF7AA
:1036000003F802467B69D31A41F28832934201D90A
:103610000323E6E04FF0B043D3F8903003F40063A7
:10362000002BECD13EE0FEF7EFFF78614FF0B043A6
:10363000D3F890304FF0B04223F08003C2F89030BE
:103640000AE0FEF7E1FF02467B69D31A41F28832B5
:10365000934201D90323C4E04FF0B043D3F8903034
:1036600003F40063002BECD1FEF7CEFF78614FF03E
:10367000B043D3F890304FF0B04223F00103C2F8CA
:1036800090300AE0FEF7C0FF02467B69D31A41F290
:103690008832934201D90323A3E0FFF746FB034698
:1036A000002BEFD17B68DB6A002B00F09980FB696F
:1036B0000C2B6CD07B68DB6A022B4BD1FFF787FCAD
:1036C000FEF7A2FF786108E0FEF79EFF02467B69E5
:1036D000D31A0A2B01D9032383E0FFF786FC0346A4
:1036E000002BF1D14FF0B043DA68404B13407A68B9
:1036F000116B7A68526B11437A68926B1202114314
:103700007A68D26B11437A68126C11437A68526CF2
:103710000A434FF0B0411343CB60FFF74AFC4FF030
:10372000B043DB684FF0B04243F08053D360FEF704
:103730006BFF786108E0FEF767FF02467B69D31AEA
:103740000A2B01D903234CE0FFF74FFC0346002B63
:10375000F1D045E0FFF73BFCFEF756FF786108E04B
:10376000FEF752FF02467B69D31A0A2B01D90323C5
:1037700037E0FFF73AFC0346002BF1D14FF0B0439E
:10378000DA684FF0B0411A4B1340CB6028E07B68F9
:10379000DB6A012B01D1012323E04FF0B043DB684A
:1037A000BB61BB6903F003027B681B6B9A4215D1B6
:1037B000BB6903F070027B685B6B9A420ED1BB69F8
:1037C00003F4FE427B689B6B1B029A4206D1BB69E5
:1037D00003F060427B685B6C9A4201D0012300E0F9
:1037E000002318462037BD4680BD00BF8C80C11124
:1037F000FCFFFEEE80B584B000AF786039607B6876
:10380000002B01D101230FE1894B1B6803F0070353
:103810003A689A421BD9864B1B6823F007028449F9
:103820003B6813430B60FEF7EFFEF86008E0FEF71D
:10383000EBFE0246FB68D31A022B01D90323F3E007
:103840007B4B1B6803F007033A689A42EFD17B6811
:103850001B6803F00203002B16D07B689B68184698
:10386000FFF72AFBFEF7D0FEF86008E0FEF7CCFE7B
:103870000246FB68D31A022B01D90323D4E0FFF7D9
:10388000F2FB0346002BF1D07B681B6803F040037A
:10389000002B16D07B685B691846FFF720FBFEF70C
:1038A000B3FEF86008E0FEF7AFFE0246FB68D31AED
:1038B000022B01D90323B7E0FFF7E6FB0346002BF9
:1038C000F1D07B681B6803F00403002B16D07B68E3
:1038D000DB681846FFF719FBFEF796FEF86008E074
:1038E000FEF792FE0246FB68D31A022B01D903238E
:1038F0009AE0FFF7DBFB0346002BF1D07B681B68E7
:1039000003F00803002B17D07B681B69DB00184607
:10391000FFF70EFBFEF778FEF86008E0FEF774FE96
:103920000246FB68D31A022B01D903237CE0FFF780
:10393000CEFB0346002BF1D07B681B6803F001032C
:10394000002B43D07B685B68022B06D1FFF79BF905
:103950000346002B1ED1012366E07B685B68032BC6
:1039600006D1FFF742FB0346002B13D101235BE096
:103970007B685B68002B06D1FFF735FA0346002B06
:1039800008D1012350E0FFF7ABF90346002B01D12A
:10399000012349E07B685B681846FFF76FFAFEF782
:1039A00033FEF8600AE0FEF72FFE0246FB68D31AEA
:1039B00041F28832934201D9032335E0FFF771FACF
:1039C00002467B685B689B009A42ECD1184B1B68EF
:1039D00003F007033A689A421BD2154B1B6823F089
:1039E000070213493B6813430B60FEF70DFEF860B6
:1039F00008E0FEF709FE0246FB68D31A022B01D944
:103A0000032311E00A4B1B6803F007033A689A424C
:103A1000EFD100F0B3F80346064A1360064B1B686B
:103A20001846FEF7A5FD034618461037BD4680BD73
:103A300000400058000000201000002090B587B022
:103A400000AF00237B6100233B61FFF72AFAB860D7
:103A5000FFF7FEFA7860BB68002B05D0BB680C2B23
:103A600039D17B68012B36D1FFF7CDF90346002B06
:103A700015D1FFF7C8F90346012B06D1FFF7D3F99B
:103A800003461B0A03F00F0305E0FFF7D7F90346CF
:103A90001B0A03F00F03364A52F8233014E0FFF7F5
:103AA000B2F90346012B06D1FFF7BDF903461B0906
:103AB00003F00F0305E0FFF7C1F903461B0903F00C
:103AC0000F032B4A52F823303B61BB68002B15D102
:103AD0003B697B6112E0BB68042B02D1254B7B6103
:103AE0000CE0BB68082B09D1FFF7A0F80346012BB7
:103AF00002D1204B7B6101E01F4B7B61FFF7D1F9C5
:103B000003460C2B2FD1FFF7A3FA78607B68022BBA
:103B100003D07B68032B03D00DE0164BFB600DE058
:103B2000FFF784F80346012B02D1124BFB6005E03E
:103B3000114BFB6002E03B69FB6000BFFFF766FAD8
:103B40000246FB6803FB02F4FFF777FA03461B0902
:103B50000133B4FBF3F4FFF765FA03465B0F01335F
:103B6000B4FBF3F37B617B6918461C37BD4690BDFF
:103B7000F86200080024F4000048E80198B500AF9E
:103B8000FFF75CFF0446FFF7E6F903461B0903F065
:103B90000F03034A52F82330B4FBF3F3184698BDE1
:103BA0009862000898B500AFFFF7E8FF0446FFF7FA
:103BB000EAF903461B0A034A52F8233024FA03F3B6
:103BC000184698BDD862000898B500AFFFF7D6FF39
:103BD0000446FFF7E3F90346DB0A034A52F82330B1
:103BE00024FA03F3184698BDD862000890B585B052
:103BF00000AF78607B681B0903F00F03104A52F88E
:103C00002330FB60FFF7B2F903461B0903F00F03F3
:103C10000C4A52F82330FA68B2FBF3F3BB60BB687E
:103C2000094AA2FB03239C0CFEF7C6FF0346194674
:103C3000204600F00BF8034618461437BD4690BDE9
:103C4000F86200089862000883DE1B4380B58EB0DE
:103C500000AF786039603A4A07F1200392E8030028
:103C6000186004331980374A07F1180392E80300FB
:103C7000186004331980344A07F10C0307CA83E83B
:103C8000070000237B633B68B3F5007F1BD1002353
:103C90003B6314E03B6B5B0038333B4433F8183C28
:103CA0001A467B68934207D83B6B9B0038333B44F2
:103CB00053F82C3C7B6321E03B6B01333B633B6B54
:103CC000022BE7D91AE00023FB6214E0FB6A5B00D9
:103CD00038333B4433F8203C1A467B68934207D87C
:103CE000FB6A9B0038333B4453F82C3C7B6305E074
:103CF000FB6A0133FB62FB6A022BE7D9134B1B689B
:103D000023F0070211497B6B13430B60FEF77CFC29
:103D1000B86208E0FEF778FC0246BB6AD31A022BB1
:103D200001D9032307E0094B1B6803F007037A6BF3
:103D30009A42EFD1002318463837BD4680BD00BFF8
:103D40007C620008846200088C6200080040005811
:103D500080B400AF4FF0B043D3F8903003F00203CB
:103D6000022B01D1012300E000231846BD4680BC90
:103D7000704780B483B000AF78604FF0B043D3F8A1
:103D800088207B681B0CDB431A407B689BB24FF09A
:103D9000B0411343C1F8883000BF0C37BD4680BC2A
:103DA000704780B483B000AF78604FF0B043D3F871
:103DB000883023F440724FF0B0417B681343C1F860
:103DC000883000BF0C37BD4680BC704780B483B0DC
:103DD00000AF78604FF0B043D3F8883023F44062EE
:103DE0004FF0B0417B681343C1F8883000BF0C37F7
:103DF000BD4680BC704780B483B000AF78604FF0A0
:103E0000B043D3F888207B681B0903F47F23DB438E
:103E10001A407B681B0103F47F234FF0B04113432A
:103E2000C1F8883000BF0C37BD4680BC704780B4F5
:103E300083B000AF78604FF0B043D3F888207B6840
:103E40001B0C1B04DB431A407B681B044FF0B04182
:103E50001343C1F8883000BF0C37BD4680BC7047A3
:103E600080B483B000AF78604FF0B043D3F88830AF
:103E700023F040424FF0B0417B681343C1F88830D3
:103E800000BF0C37BD4680BC704780B483B000AF24
:103E900078604FF0B043D3F8883023F040524FF0B1
:103EA000B0417B681343C1F8883000BF0C37BD4672
:103EB00080BC704780B483B000AF78604FF0B043EF
:103EC000D3F8903023F440724FF0B0417B68134335
:103ED000C1F8903000BF0C37BD4680BC704780B43D
:103EE00000AF4FF0B043D3F8903003F4407318465E
:103EF000BD4680BC704780B400AF4FF0B043D3F8EC
:103F000090304FF0B04243F48033C2F8903000BF9D
:103F1000BD4680BC704780B400AF4FF0B043D3F8CB
:103F200090304FF0B04223F48033C2F8903000BF9D
:103F3000BD4680BC7047000080B586B000AF786099
:103F400000237B610023FB740023BB747B681B6828
:103F500003F48033002B58D0FEF720FEFEF754FB0D
:103F6000F86009E0FEF750FB0246FB68D31A022B0B
:103F700002D90323FB7406E07B4B1B6803F48073B8
:103F8000B3F5807FEED1FB7C002B3CD1FFF7A7FF80
:103F900002467B685B6B9A420FD04FF0B043D3F878
:103FA000903023F440737B61FFF7A5FFFFF7B3FF69
:103FB0004FF0B0427B69C2F890307B6903F0020396
:103FC000002B14D0FEF720FBF8600BE0FEF71CFB83
:103FD0000246FB68D31A41F28832934202D9032386
:103FE000FB7404E0FFF7B4FE0346012BEED1FB7C2B
:103FF000002B05D17B685B6B1846FFF75BFF04E085
:10400000FB7CBB7401E0FB7CBB747B681B6803F02A
:104010000103002B04D07B685B681846FFF7A9FEFC
:104020007B681B6803F00203002B04D07B689B684D
:104030001846FFF79EFE7B681B6803F02003002BE9
:1040400004D07B681B691846FFF7C0FE7B681B68BD
:1040500003F40073002B04D07B681B6A1846FFF73B
:10406000E6FE7B681B6803F48063002B04D07B684A
:104070005B6A1846FFF7DBFE7B681B6803F400638E
:10408000002B04D07B689B6A1846FFF7D0FE7B6844
:104090001B6803F04003002B04D07B685B69184663
:1040A000FFF7A9FE7B681B6803F08003002B04D098
:1040B0007B689B691846FFF79EFE7B681B6803F4CC
:1040C0008073002B04D07B68DB691846FFF793FEF2
:1040D0007B681B6803F01003002B11D07B68DB6842
:1040E0001846FFF75EFE7B68DB68B3F5807F07D17B
:1040F0004FF0B043DB684FF0B04243F08073D360C1
:104100007B681B6803F40043002B10D07B681B6B9B
:104110001846FFF7A5FE7B681B6B002B07D14FF0FD
:10412000B043DB684FF0B04243F08073D3607B68EC
:104130001B6803F48043002B11D07B68DB6A1846B0
:10414000FFF7A3FE7B68DB6AB3F1005F07D14FF096
:10415000B043DB684FF0B04243F48033D360BB7CA4
:1041600018461837BD4680BD0004005880B483B09F
:1041700000AF7860064B9B6823F4006204497B68BB
:1041800013438B6000BF0C37BD4680BC704700BF37
:104190000004005880B400AF054BD3F89030044AB7
:1041A00043F40043C2F8903000BFBD4680BC704766
:1041B0000004005880B400AF054BD3F89030044A97
:1041C00023F40043C2F8903000BFBD4680BC704766
:1041D0000004005880B400AF034B4FF400629A61B2
:1041E00000BFBD4680BC70470004005880B400AFDB
:1041F000064B5B6903F00203022B01D1012300E0AF
:1042000000231846BD4680BC704700BF000400581C
:1042100080B400AF064B5B6903F00403042B01D1AB
:10422000012300E000231846BD4680BC704700BF54
:104230000004005880B400AF4FF0B043D3F894307E
:104240004FF0B04223F40043C2F8943000BFBD46A3
:1042500080BC704780B400AF4FF0B043D3F89430C7
:1042600003F48043B3F5804F01D1012300E0002324
:104270001846BD4680BC704780B483B000AF7860FC
:10428000064BD3F8902005497B681343C1F8903062
:1042900000BF0C37BD4680BC704700BF0008005807
:1042A00080B584B000AF78607B68002B03D1012318
:1042B000FB73FB7B52E00023FB737B689B79BB7332
:1042C000BB7B002B02D0BB7B032B09D17B68002278
:1042D0005A717868FCF7AAFE4FF48050FFF7CCFFC4
:1042E000BB7B002B26D17B6802229A71FFF7A2FFCD
:1042F0001C4B1A681346DB009B1A9B00DB0C6422E4
:1043000002FB03F3BB60BB68002B05D10123FB73E9
:104310007B6801229A6007E0BB68013BBB60FFF746
:1043200099FF0346002BEED1FFF734FF4FF40060F6
:10433000FFF71CFFFFF74EFFFB7B002B0AD17B68CA
:104340001B68184600F0B6FA7B6801221A717B6878
:1043500000229A607B6801229A71FB7B1846103715
:10436000BD4680BD0000002080B586B000AFF8607B
:104370007A601A460B467B8113463B81FB689B792A
:10438000DBB2012B4AD1FB685B79012B01D10223FF
:1043900045E0FB6801225A71FB6802229A71F868B5
:1043A00000F056FBFFF706FF0D21F86800F0A2FAB7
:1043B0007B891B0A9BB2DBB21946F86800F09AFAB7
:1043C0007B89DBB21946F86800F094FA0023BB82BF
:1043D0000AE0BB8A7A6813441B781946F86800F033
:1043E00089FABB8A0133BB82BA8A3B899A42F0D3ED
:1043F000FFF7D0FEF86800F04FFBFB689B68002BCE
:1044000002D00123FB7501E00023FB75FB6801224C
:104410009A71FB6800225A71FB7D00E00223184666
:104420001837BD4680BD80B588B000AFF8607A60AF
:104430001A460B467B8113463B817B68BB61FB6858
:104440009B79DBB2012B4AD1FB685B79012B01D14F
:10445000022345E0FB6801225A71F86800F0F8FA7F
:10446000FFF7A8FE1D21F86800F044FA7B891B0ABB
:104470009BB2DBB21946F86800F03CFA7B89DBB2EC
:104480001946F86800F036FA0021F86800F032FAB0
:104490000023FB8209E0B969F86800F081FABB6982
:1044A0000133BB61FB8A0133FB82FA8A3B899A4262
:1044B000F1D3FFF76FFEF86800F0EEFAFB689B6837
:1044C000002B02D00123FB7701E00023FB77FB6880
:1044D00001229A71FB6800225A71FB7F00E00223DF
:1044E00018462037BD4680BD80B586B000AFF86065
:1044F0007A601A460B46FB7213463B81FB689B7938
:10450000DBB2012B4AD1FB685B79012B01D102237D
:1045100045E0FB6801225A71F86800F099FAFB7ACD
:10452000842B02D0FB7A942B03D1FB6801221A71F1
:1045300002E0FB6800221A71FFF73CFEFB7A194685
:10454000F86800F0D7F90023BB820AE0BB8A7A68DA
:1045500013441B781946F86800F0CCF9BB8A013384
:10456000BB82BA8A3B899A42F0D3FFF713FEFB7AEB
:10457000842B02D0F86800F08FFAFB689B68002B50
:1045800002D00123FB7501E00023FB75FB680122CB
:104590009A71FB6800225A71FB7D00E002231846E5
:1045A0001837BD4680BD80B588B000AFF8607A602E
:1045B0001A460B46FB7213463B817B68BB61FB6866
:1045C0009B79DBB2012B3DD1FB685B79012B01D1DB
:1045D000022338E0FB6801225A71F86800F038FACB
:1045E000FFF7E8FDFB7A1946F86800F083F900212F
:1045F000F86800F07FF90023FB8209E0B969F868E8
:1046000000F0CEF9BB690133BB61FB8A0133FB8249
:10461000FA8A3B899A42F1D3FFF7BCFDF86800F0B3
:104620003BFAFB689B68002B02D00123FB7701E07B
:104630000023FB77FB6801229A71FB6800225A7104
:10464000FB7F00E0022318462037BD4680BD80B5C1
:1046500086B000AFF8607A601A460B46FB721346CC
:104660003B81FB689B79DBB2012B3ED1FB685B7918
:10467000012B01D1022339E0FB6801225A71F8684D
:1046800000F0E6F9FFF796FD0E21F86800F032F928
:10469000FB7A1946F86800F02DF90023BB820AE086
:1046A000BB8A7A6813441B781946F86800F022F92F
:1046B000BB8A0133BB82BA8A3B899A42F0D3FFF7A7
:1046C00069FDF86800F0E8F9FB689B68002B02D0F0
:1046D0000123FB7501E00023FB75FB6801229A7141
:1046E000FB6800225A71FB7D00E002231846183750
:1046F000BD4680BD80B588B000AFF8607A601A46CC
:104700000B46FB7213463B817B68BB61FB689B7960
:10471000DBB2012B41D1FB685B79012B01D1022374
:104720003CE0FB6801225A71F86800F091F9FFF74C
:1047300041FD1E21F86800F0DDF8FB7A1946F868A3
:1047400000F0D8F80021F86800F0D4F80023FB82CC
:1047500009E0B969F86800F023F9BB690133BB616E
:10476000FB8A0133FB82FA8A3B899A42F1D3FFF735
:1047700011FDF86800F090F9FB689B68002B02D0EF
:104780000123FB7701E00023FB77FB6801229A718C
:10479000FB6800225A71FB7F00E002231846203795
:1047A000BD4680BD80B584B000AF78600023BB817A
:1047B00007F10C02022312217868FFF7F4FE3B7B1D
:1047C000FB81FB891B021AB27B7B1BB213431BB21A
:1047D000FB8107F10C02022302217868FFF784FEB7
:1047E000FB8903F00103002B02D07868FDF7DEFDA2
:1047F000FB895B0803F00103002B02D07868FDF70A
:10480000E3FDFB899B0803F00103002B02D07868CD
:10481000FDF732FEFB89DB0803F00103002B02D019
:104820007868FDF737FEFB891B0903F00103002BB5
:1048300002D07868FDF73CFEFB895B0903F00103B9
:10484000002B02D07868FDF709FEFB899B0903F075
:104850000103002B02D07868FDF7C4FDFB89DB095A
:1048600003F00103002B0ED0FB891B0A03F00103A8
:10487000002B04D001217868FDF7C2FD03E0002180
:104880007868FDF7BDFDFB895B0A03F00103002B8F
:1048900002D07868FDF7D2FDFB899B0B03F0010382
:1048A000002B02D07868FDF711FE00BF1037BD461F
:1048B00080BD000080B483B000AF78600C4B1B68F3
:1048C0000B4A23F040031360094A7B6843F44173A9
:1048D0001360074B4FF4B8525A60054B1B68044AEB
:1048E00043F04003136000BF0C37BD4680BC7047E7
:1048F0000000015880B487B000AF78600B46FB70B1
:104900000023FB75234B1A681346DB009B1A9B00A0
:10491000DB0C642202FB03F3FB60FB68002B05D178
:104920000123FB757B6801229A6008E0FB68013B6C
:10493000FB60194B9B6803F00203022BEDD1174B70
:104940003B613B69FA781A70124B1A681346DB0018
:104950009B1A9B00DB0C642202FB03F3FB60FB68E9
:10496000002B05D10123FB757B6801229A6008E0CA
:10497000FB68013BFB60084B9B6803F00103012BC4
:10498000EDD1054BDB68FB7D18461C37BD4680BC6E
:10499000704700BF00000020000001580C000158C3
:1049A00080B487B000AF786039600023FB75254B79
:1049B0001A681346DB009B1A9B00DB0C642202FB87
:1049C00003F3FB60FB68002B05D10123FB757B68BB
:1049D00001229A6008E0FB68013BFB601A4B9B6870
:1049E00003F00203022BEDD1184B3B613B69FF2220
:1049F0001A70144B1A681346DB009B1A9B00DB0CE1
:104A0000642202FB03F3FB60FB68002B05D101234A
:104A1000FB757B6801229A6008E0FB68013BFB6044
:104A2000094B9B6803F00103012BEDD1064BDB68BA
:104A3000DAB23B681A70FB7D18461C37BD4680BC55
:104A4000704700BF00000020000001580C00015812
:104A500080B584B000AF78607B681B79012B11D1E1
:104A60000C4B1A6813465B001344DB001B0CFB6005
:104A7000FFF7A0FBFB68013BFB60FB68002BF9D153
:104A8000FFF788FB786800F007F8034618461037F0
:104A9000BD4680BD0000002080B586B000AF7860C4
:104AA0000023FB75124B1A6813465B001344DB00AE
:104AB0001B0D642202FB03F3FB60FFF7A9FB3861C7
:104AC000FB68002B05D10123FB757B6802229A60ED
:104AD00009E0FB68013BFB60FFF788FB02463B698E
:104AE0001340012BE9D0FB7D18461837BD4680BD29
:104AF0000000002080B483B000AF78604FF0B04376
:104B0000D3F888207B681A407B681B04134318463F
:104B10000C37BD4680BC704780B483B000AF78606E
:104B20004FF0B043D3F888207B68134018460C3709
:104B3000BD4680BC704780B582B000AF78607B68AE
:104B4000002B01D101234AE07B68D3F88830002B89
:104B500006D17B68002283F884207868FCF732FB5A
:104B60007B682422C3F888207B681B681A687B68EE
:104B70001B6822F001021A60786800F0BBF8034657
:104B8000012B01D101232AE07B689B6A002B02D014
:104B9000786800F023FB7B681B685A687B681B6899
:104BA00022F490425A607B681B689A687B681B6895
:104BB00022F022029A607B681B689A687B681B68F7
:104BC00042F008029A607B681B681A687B681B6861
:104BD00042F001021A60786800F0A1FB0346184613
:104BE0000837BD4680BD80B58AB002AFF860B960B5
:104BF0003B601346FB80FB68D3F88830202B73D1D1
:104C0000BB68002B02D0FB88002B01D101236CE094
:104C1000FB680022C3F89020FB682122C3F888209B
:104C2000FDF7F2FC7861FB68FA88A3F85420FB6872
:104C3000FA88A3F85620FB689B68B3F5805F08D11B
:104C4000FB681B69002B04D10023FB61BB68BB61BF
:104C500003E0BB68FB610023BB612CE03B68009371
:104C60007B6900228021F86800F0A7FB0346002B37
:104C700001D0032339E0FB69002B0BD1BB691B88F2
:104C80001A46FB681B68C2F308029A62BB690233CA
:104C9000BB6107E0FB691A78FB681B689A62FB69D5
:104CA0000133FB61FB68B3F856309BB2013B9AB20B
:104CB000FB68A3F85620FB68B3F856309BB2002B74
:104CC000CCD13B6800937B6900224021F86800F05A
:104CD00074FB0346002B01D0032306E0FB6820226F
:104CE000C3F88820002300E0022318462037BD4681
:104CF00080BD00002DE9B04F8CB000AF786100237B
:104D000087F82A307B699A687B691B691A437B693B
:104D10005B691A437B69DB691343FB627B691B6830
:104D20001A68944B13407A691268F96A0B4313604E
:104D30007B691B685B6823F440517B69DA687B6997
:104D40001B680A435A607B699B69FB627B691B682D
:104D5000894A934204D07B691B6AFA6A1343FB6257
:104D60007B691B689B6823F06E4323F430637A6988
:104D70001268F96A0B4393607B691B68DB6A23F056
:104D80000F017B695A6A7B691B680A43DA627B6997
:104D90001B687A4A934227D10320FFF7ABFE0346F4
:104DA000A3F54033032B1BD801A252F823F000BF18
:104DB000C14D0008D14D0008C94D0008D94D00086B
:104DC000012387F82B3080E0022387F82B307CE02A
:104DD000042387F82B3078E0082387F82B3074E021
:104DE000102387F82B3070E07B691B68644A93427C
:104DF00038D10C20FFF77EFE0346A3F540230C2B91
:104E00002CD801A252F823F03D4E00085D4E000858
:104E10005D4E00085D4E00084D4E00085D4E0008D6
:104E20005D4E00085D4E0008454E00085D4E0008CE
:104E30005D4E00085D4E0008554E0008002387F8BF
:104E40002B3042E0022387F82B303EE0042387F822
:104E50002B303AE0082387F82B3036E0102387F810
:104E60002B3032E07B691B68434A93422AD14FF4CE
:104E70004060FFF751FE0346B3F5406F1AD0B3F51B
:104E8000406F1BD8B3F5006F0CD0B3F5006F15D889
:104E9000002B03D0B3F5806F08D00FE0002387F814
:104EA0002B3012E0022387F82B300EE0042387F822
:104EB0002B300AE0082387F82B3006E0102387F810
:104EC0002B3002E0102387F82B307B691B682A4ABD
:104ED000934240F0A48097F82B30082B23D801A2EE
:104EE00052F823F0094F0008274F0008114F00081F
:104EF000274F0008174F0008274F0008274F0008CA
:104F0000274F00081F4F0008FEF74CFE786210E0A4
:104F10001C4B7B620DE0FEF791FD786209E04FF4D7
:104F200000437B6205E000237B62012387F82A307F
:104F300000BF7B6A002B00F037817B695B6A124AF5
:104F400032F813301A467B6AB3FBF2F3BB617B691C
:104F50005A6813465B001344BA699A4205D37B69C9
:104F60005B681B03BA699A4210D9012387F82A307B
:104F70001AE100BFF369FFCF008000400038014014
:104F8000004400400024F400406300087B6A0022D3
:104F9000BB60FA607B695B6A8E4A32F813309BB261
:104FA00000223B607A60D7E90023D7E90201FBF7D2
:104FB0003FF902460B46104619464FF000024FF0EB
:104FC00000030B0243EA1063020279694968490849
:104FD00000200C46054612EB040843EB05097B69EB
:104FE0005B6800229A46934652465B4640464946D5
:104FF000FBF71EF902460B4613463B623B6AB3F5CC
:10500000407F08D33B6AB3F5801F04D27B691B68DD
:105010003A6ADA60C8E0012387F82A30C4E07B6985
:10502000DB69B3F5004F67D197F82B30082B28D8F0
:1050300001A252F823F000BF5D500008655000083F
:105040006D5000088350000873500008835000081A
:1050500083500008835000087B500008FEF7A2FD33
:10506000786214E0FEF7B0FD786210E05A4B7B6284
:105070000DE0FEF7E3FC786209E04FF400437B6249
:1050800005E000237B62012387F82A3000BF7B6A9A
:10509000002B00F089807B695B6A4E4A32F813303E
:1050A0001A467B6AB3FBF2F35A007B695B685B08C4
:1050B0001A447B695B68B2FBF3F33B623B6A0F2BDC
:1050C00016D93B6AB3F5803F12D23B6A9BB223F0FC
:1050D0000F03FB833B6A5B089BB203F007039AB2A2
:1050E000FB8B1343FB837B691B68FA8BDA605BE005
:1050F000012387F82A3057E097F82B30082B28D85F
:1051000001A252F823F000BF2D51000835510008CC
:105110003D51000853510008435100085351000805
:1051200053510008535100084B510008FEF73AFD57
:10513000786214E0FEF748FD786210E0264B7B624F
:105140000DE0FEF77BFC786209E04FF400437B62E0
:1051500005E000237B62012387F82A3000BF7B6AC9
:10516000002B21D07B695B6A1A4A32F813301A4649
:105170007B6AB3FBF2F27B695B685B081A447B696C
:105180005B68B2FBF3F33B623B6A0F2B09D93B6AC6
:10519000B3F5803F05D23B6A9AB27B691B68DA603F
:1051A00002E0012387F82A307B690122A3F86A20F4
:1051B0007B690122A3F868207B6900225A677B691A
:1051C00000229A6797F82A3018463037BD46BDE866
:1051D000B08F00BF406300080024F40080B483B0A7
:1051E00000AF78607B689B6A03F00103002B0AD054
:1051F0007B681B685B6823F400317B68DA6A7B6834
:105200001B680A435A607B689B6A03F00203002B09
:105210000AD07B681B685B6823F480317B681A6B5B
:105220007B681B680A435A607B689B6A03F004032F
:10523000002B0AD07B681B685B6823F480217B68A5
:105240005A6B7B681B680A435A607B689B6A03F051
:105250000803002B0AD07B681B685B6823F40041BD
:105260007B689A6B7B681B680A435A607B689B6A01
:1052700003F01003002B0AD07B681B689B6823F4A3
:1052800080517B68DA6B7B681B680A439A607B6895
:105290009B6A03F02003002B0AD07B681B689B6885
:1052A00023F400517B681A6C7B681B680A439A6080
:1052B0007B689B6A03F04003002B1AD07B681B6855
:1052C0005B6823F480117B685A6C7B681B680A4317
:1052D0005A607B685B6CB3F5801F0AD17B681B68E2
:1052E0005B6823F4C0017B689A6C7B681B680A4387
:1052F0005A607B689B6A03F08003002B0AD07B68AE
:105300001B685B6823F400217B68DA6C7B681B6890
:105310000A435A6000BF0C37BD4680BC704780B559
:1053200086B002AF78607B680022C3F89020FDF75A
:105330006BF9F8607B681B681B6803F00803082B97
:105340000ED16FF07E430093FB6800224FF40011F2
:10535000786800F032F80346002B01D0032328E0E0
:105360007B681B681B6803F00403042B0ED16FF0ED
:105370007E430093FB6800224FF48001786800F0C0
:105380001CF80346002B01D0032312E07B68202287
:10539000C3F888207B682022C3F88C207B68002219
:1053A000DA667B6800221A677B68002283F8842013
:1053B000002318461037BD4680BD80B59CB000AFB5
:1053C000F860B9603B601346FB71A9E0BB6FB3F1B5
:1053D000FF3F00F0A580FDF717F902463B68D31A9E
:1053E000BA6F9A4202D3BB6F002B40D1FB681B6897
:1053F0003B653B6D53E8003FFB64FB6C23F4D073CB
:105400007B66FB681B681A467B6EFB65BA65B96DE7
:10541000FA6D41E800237B657B6D002BE6D1FB68CC
:105420001B680833FB63FB6B53E8003FBB63BB6B3C
:1054300023F001033B66FB681B6808333A6EBA64CD
:105440007B64796CBA6C41E800233B643B6C002BB5
:10545000E5D1FB682022C3F88820FB682022C3F82E
:105460008C20FB68002283F88420032369E0FB681A
:105470001B681B6803F00403002B51D0FB681B68FA
:10548000DB6903F40063B3F5006F49D1FB681B6867
:105490004FF400621A62FB681B68BB62BB6A53E888
:1054A000003F7B627B6A23F4D073FB66FB681B685A
:1054B0001A46FB6E7B633A63396B7A6B41E80023D3
:1054C000FB62FB6A002BE6D1FB681B6808337B613B
:1054D0007B6953E8003F3B613B6923F00103BB66F6
:1054E000FB681B680833BA6E3A62FB61F9693A6A75
:1054F00041E80023BB61BB69002BE5D1FB6820229A
:10550000C3F88820FB682022C3F88C20FB68202287
:10551000C3F89020FB68002283F88420032310E066
:10552000FB681B68DA69BB681340BA689A420CBF13
:1055300001230023DBB21A46FB799A423FF446AFBF
:10554000002318467037BD4680BD80B485B000AFDB
:1055500078607B6893F88430012B01D1022327E027
:105560007B68012283F884207B682422C3F888208A
:105570007B681B681B68FB607B681B681A687B681C
:105580001B6822F001021A60FB6823F00053FB60E5
:105590007B6800225A667B681B68FA681A607B6821
:1055A0002022C3F888207B68002283F8842000230F
:1055B00018461437BD4680BC704780B584B000AF34
:1055C000786039607B6893F88430012B01D1022325
:1055D0002DE07B68012283F884207B682422C3F8B5
:1055E00088207B681B681B68FB607B681B681A68E7
:1055F0007B681B6822F001021A607B681B689B684D
:1056000023F060417B681B683A680A439A607868B7
:1056100000F050F87B681B68FA681A607B682022EB
:10562000C3F888207B68002283F884200023184672
:105630001037BD4680BD80B584B000AF786039605A
:105640007B6893F88430012B01D102232DE07B6825
:10565000012283F884207B682422C3F888207B6899
:105660001B681B68FB607B681B681A687B681B688B
:1056700022F001021A607B681B689B6823F060615E
:105680007B681B683A680A439A60786800F012F8F1
:105690007B681B68FA681A607B682022C3F8882040
:1056A0007B68002283F88420002318461037BD460B
:1056B00080BD000080B485B000AF78607B685B6E11
:1056C000002B08D17B680122A3F86A207B680122A5
:1056D000A3F8682031E00823FB730823BB737B68C1
:1056E0001B689B685B0EDBB203F007037B737B6870
:1056F0001B689B685B0FDBB203F007033B73BB7B4C
:105700003A7B10498A5C02FB03F33A7B0E498A5CC0
:1057100093FBF2F39AB27B68A3F86A20FB7B7A7B57
:1057200008498A5C02FB03F37A7B07498A5C93FB96
:10573000F2F39AB27B68A3F8682000BF1437BD4625
:1057400080BC7047586300086063000880B485B06F
:1057500000AF78600B46FB7013463B807B68FB60B4
:1057600004E0FB685A1CFA60FA781A703B885A1EEB
:105770003A80002BF5D100BF00BF1437BD4680BC76
:1057800070470000014B1868704700BF18000020E8
:1057900070B50D4D0D4C641BA4100026A64209D116
:1057A0000B4D0C4C00F0A0FC641BA4100026A6427C
:1057B00005D170BD55F8043B98470136EEE755F822
:1057C000043B98470136F2E7A4630008A46300088D
:1057D000A4630008A863000802440346934200D172
:1057E000704703F8011BF9E70EB400B59CB01DAB80
:1057F000029006906FF00041094807910491094911
:1058000053F8042B05910068019302A900F07CF87D
:10581000029B00221A701CB05DF804EB03B07047C5
:10582000180000200802FFFF10B5034672B10139CD
:10583000841813F8010B11F8012F904201D1A342F3
:1058400001D1801A10BD0028F3D1FAE71046F9E71C
:105850002DE9F0478E689E4282460C4690461F46D0
:1058600038D88A8912F4906F32D025680969A5EB7F
:105870000109656905EB450505EBD57501334B4419
:105880006D109D4238BF1D46530531D5294600F0A5
:1058900061FB064650B90C23CAF80030A38943F0D7
:1058A0004003A3814FF0FF30BDE8F08721694A46ED
:1058B00000F0BEFAA38923F4906343F08003A38130
:1058C000266165614E44A5EB09052660A5603E464C
:1058D000BE4200D93E4620683246414600F0B6FA44
:1058E000A3689B1BA3602368334423600020DBE78D
:1058F0002A4600F0A3FB06460028E1D12169504664
:1059000000F0BEFAC7E700002DE9F04F98468B89FA
:105910001B069DB007460D4614460ED50B6963B9AC
:10592000402100F017FB2860286120B90C233B6060
:105930004FF0FF30D1E040236B6100230993202317
:105940008DF82930CDF80C803023DFF8A8818DF850
:105950002A304FF0010923469A4613F8012B0AB169
:10596000252AF9D1BAEB040B0BD05B462246294617
:105970003846FFF76DFF013000F0AA80099A5A44BB
:1059800009929AF80030002B00F0A28000234FF01B
:10599000FF32CDE905230AF1010A049307938DF83C
:1059A00053301A935446052214F8011B5148FAF754
:1059B000EFFB049AD8B9D00644BF20238DF85330AA
:1059C000110744BF2B238DF853309AF800302A2B4F
:1059D00015D0079A544600204FF00A0C214611F8C2
:1059E000013B303B092B4ED9B0B1079214E0A0EB3C
:1059F000080309FA03F313430493A246D2E7039B77
:105A0000191D1B680391002BBBBF5B4242F00202D1
:105A100007930793B8BF049223782E2B0CD1637899
:105A20002A2B35D1039B1A1D1B680392002BB8BF8C
:105A30004FF0FF3302340593DFF8BCA02178032236
:105A40005046FAF7A5FB40B14023A0EB0A0003FA49
:105A500000F0049B03430134049314F8011B27480E
:105A60008DF828100622FAF793FB002838D0244B33
:105A70001BBB039B073323F0070308330393099BE6
:105A80003344099367E70CFB02320C460120A5E77B
:105A900000230134059319464FF00A0C204610F8F4
:105AA000012B303A092A03D9002BC5D00591C3E751
:105AB0000CFB012104460123F0E703AB00932A46C7
:105AC000104B04A93846AFF30080421C0646D6D1DD
:105AD000AB895B063FF52CAF09981DB0BDE8F08F90
